:100000006F00C04B0000000032010000360100000C
:1000100000000000000000000000000000000000E0
:1000200000000000000000000000000000000000D0
:100030008A040000000000008C04000000000000A2
:100040008E0400009004000092040000940400005C
:1000500096040000980400009A0400009C0400002C
:100060009E040000A0040000A2040000A4040000FC
:10007000A6040000A804000034030000BE03000032
:10008000AE040000B0040000B2040000B40400009C
:10009000B6040000B8040000BA040000000000002C
:1000A000511126C022C206C4828282441244A24058
:1000B00031018280634E050263C305042E86AA8542
:1000C0007D5515C285466378B6006356C0000606A6
:1000D0008606E36CB6FE014563E4C500918D558D3F
:1000E00085820582F5FA82808682C93F2E858282CA
:1000F0003305A04063D70500B305B040C1B7B305D1
:10010000B0408682653F3305A0408282868263C705
:100110000500634905005D372E858282B305B04036
:10012000E35B05FE3305A040513F3305B0408282BA
:1001300000007300203001A0EFF29FF6130141FD93
:100140002AC62EC413055003854502C802CA02CC34
:1001500002CE02D002D202D48D2D85453705200073
:10016000612509449147F1440C0837150140FC8092
:1001700026CC22CAF1260C0837150140E08026CC97
:1001800022CA7D2EB7170140930480040C08138502
:100190000780E08026CC22CA65260D4485470C08DE
:1001A00037150140FC803EC226CC22CA512EC144E4
:1001B000A1460C0837150140F48026CC22CA4926F6
:1001C000930680020C0837150140E48036CC22CA21
:1001D000852EB7170140930600020C0813850740CF
:1001E000F48036C026CC22CAA12EB71701400C08D5
:1001F00013850740E48026CC22CA992692470C0832
:1002000026CCFC80B71701401385074022CA0D2E6B
:10021000324622473754004093070040B70400405D
:100220002313F1026C0891671305044032CE2312A8
:10023000E1022314F10226D0CD2E1305044085459A
:10024000C921814513050440C9290357444082460A
:10025000B7E700E0136707402312E4400357444028
:10026000136707202312E440035744401367071025
:100270002312E44023A09710238FD7403707008034
:1002800023A0E7101301C1020DB5EFF27FE1711158
:100290009D2B3725060093058006130505A8693DAB
:1002A000371401400146C14513050440952E05460B
:1002B0009305000213050440A52601468545130554
:1002C0000440B92E0546A14537150140912EB704CB
:1002D00000208545371501403D2E371401402AC0C6
:1002E000894513050480052E82470605C1455D8DAD
:1002F0001375F50F9387840288A337150140212ECB
:1003000001CD0546854513050440192E0546C14516
:1003100013050440312675BF014685451305044089
:1003200001260146C14513050440DD2C0546930511
:100330000002F9BF130141FD3AC23757004022CCF9
:1003400036C40354474183568741835607404204CD
:100350003EC006D416D21AD01ECE2ACA2EC832C625
:10036000418093E60640930707402310D740137758
:10037000040401CF922B37150140930500027D162E
:100380003336C00013050540612C1374040809C8F6
:10039000B707002003C78702B75700402398E740FC
:1003A0006244A25092520253F2435245C245324631
:1003B000A246124782471301C10273002030511137
:1003C00036C4B75600403EC083D746413AC2C20742
:1003D000C18313F7071019CB93860640DA2A420728
:1003E00041831377F7EF42074183DAAA13F7072017
:1003F00009CFB756004003D74641420741831377E0
:10040000F7DF42074183239AE64093F7074089CFFD
:100410003757004083574741C207C18393F7F7BF5F
:10042000C207C183231AF740A2461247824731010F
:1004300073002030B71702409843B706FFFC1367DC
:10044000170098C3D843758FD8C39843B706F7FEF3
:10045000FD16758F98C39843B706FCFFFD16758F80
:1004600098C3D843C176FD16758FD8C337079F0050
:1004700098C7372702401443F19A14C3144314C396
:10048000D843D8C3828001A001A001A001A001A08F
:1004900001A001A001A001A001A001A001A001A054
:1004A00001A001A001A001A001A001A001A001A044
:1004B00001A001A001A001A001A001A097010020BE
:1004C0009381C136138181FD170500001305C537DF
:1004D00097050020938505B317060020130606B57F
:1004E00063FAC5008322050023A05500110591057C
:1004F000E3EAC5FE17050020130545B39385818007
:100500006377B500232005001105E36DB5FE930266
:100510000008739002308D42739042809702000071
:10052000938242AE93E2320073905230EFF09FF02C
:10053000970200009382A2D573901234730020308A
:100540009C45611122C226C013F7070113F3F7007F
:1005500001C7D8413363E30092211377F60F29C70F
:100560008323050001471304800293048004854619
:10057000B395E600B376B6006392D50293122700D6
:10058000BD46B396560093C6F6FFB3F37600B3129A
:100590005300B3E37200639787064CC90507A14671
:1005A000E317D7FC232075001307F00F6378C70407
:1005B00083234500A1461304800293048004054769
:1005C000B312D700337756006394E20213972600E4
:1005D0000117BD45B395E50093C5F5FFB3F375006D
:1005E0003317E300B363770063928702232A550031
:1005F00085064147E395E6FC2322750012448244B8
:1006000021018280E39C97F80CC949BFE39297FED1
:1006100023285500F1BF08456D8D3335A000828039
:1006200019C20CC982804CC98280EFF27FA71111D8
:1006300046212A8428002EC0F528C246C204C18063
:1006400093F404FCB7450F00938505243685C20456
:1006500036C2C180A534458D420541814AA01E2085
:100660009246C207C183F99BC207C1831EA082477D
:100670009043E1679387076A9315160063E4C70404
:1006800036852D3CAA874205418191466373D5008A
:1006900091471395070141814AAC1E20024793E719
:1006A00017001EA01E2056233227C207C183D18EF9
:1006B00093F757BFD58F1EA016275E27D58F1EA490
:1006C0007101E5B28247EA23B167FD17631FF500A8
:1006D000B2953685E532420541819317450199E38C
:1006E00013651500A1675D8D45BFB387C5008E07F3
:1006F000B385C7003685D9324205418191675D8D4A
:10070000E9BF1E2189C593E717001EA18280C20799
:10071000C183F99BC207C183CDBF1E2189E593E741
:1007200007081EA18280C207C18393F7F7F7C207AB
:10073000C183C5BFEFF2DF96371702405C43914695
:100740002A84B18B6385D700A146638AD706B73761
:100750006E01938707601CC0B7160240DC4291838C
:1007600013F7F700B707002093878701BA978C2308
:10077000DC42184093F5F50F93F707083355B7009F
:1007800099E33A85253A48C008C448C4B7170240DF
:10079000DC43AD83FD8B13D737008A07F18BD98FEC
:1007A00093F637010D476373D700D1173707002041
:1007B00013074700BA978C23113208C8FDB05C4379
:1007C000B777DC02938707C079B799C5371702401E
:1007D0001C4F5D8D08CF8280B7170240984F13459C
:1007E000F5FF798D88CF828099C5371702405C4F1D
:1007F0005D8D48CF8280B7170240D84F1345F5FF73
:10080000798DC8CF8280EFF2BF89B707002003A59A
:100810000700B7157A0093850520EFF03F8A13751E
:10082000F50FB70700202386A70293175500898F7D
:100830008A073E950E05B70700202395A7026FF0A3
:04084000DF8600004F
:1008440000366E010204060804080C100810182073
:100854001020304020406080010203040506070890
:08086400010203040506070868
:00000001FF
